{
  "contractName": "Betting",
  "abi": [
    {
      "inputs": [
        {
          "internalType": "bytes32[]",
          "name": "initOutcomes",
          "type": "bytes32[]"
        }
      ],
      "stateMutability": "nonpayable",
      "type": "constructor"
    },
    {
      "anonymous": false,
      "inputs": [
        {
          "indexed": true,
          "internalType": "address",
          "name": "gambler",
          "type": "address"
        },
        {
          "indexed": true,
          "internalType": "bytes32",
          "name": "outcome",
          "type": "bytes32"
        },
        {
          "indexed": false,
          "internalType": "uint256",
          "name": "amount",
          "type": "uint256"
        }
      ],
      "name": "BetMade",
      "type": "event"
    },
    {
      "anonymous": false,
      "inputs": [
        {
          "indexed": true,
          "internalType": "address",
          "name": "previousOracle",
          "type": "address"
        },
        {
          "indexed": true,
          "internalType": "address",
          "name": "newOracle",
          "type": "address"
        }
      ],
      "name": "OracleChanged",
      "type": "event"
    },
    {
      "anonymous": false,
      "inputs": [
        {
          "indexed": false,
          "internalType": "address[]",
          "name": "wins",
          "type": "address[]"
        },
        {
          "indexed": false,
          "internalType": "uint256",
          "name": "totalPrize",
          "type": "uint256"
        }
      ],
      "name": "Winners",
      "type": "event"
    },
    {
      "anonymous": false,
      "inputs": [
        {
          "indexed": true,
          "internalType": "address",
          "name": "gambler",
          "type": "address"
        },
        {
          "indexed": false,
          "internalType": "uint256",
          "name": "amount",
          "type": "uint256"
        }
      ],
      "name": "Withdrawn",
      "type": "event"
    },
    {
      "inputs": [
        {
          "internalType": "address",
          "name": "",
          "type": "address"
        }
      ],
      "name": "bets",
      "outputs": [
        {
          "internalType": "bytes32",
          "name": "outcome",
          "type": "bytes32"
        },
        {
          "internalType": "uint256",
          "name": "amount",
          "type": "uint256"
        }
      ],
      "stateMutability": "view",
      "type": "function"
    },
    {
      "inputs": [],
      "name": "decisionMade",
      "outputs": [
        {
          "internalType": "bool",
          "name": "",
          "type": "bool"
        }
      ],
      "stateMutability": "view",
      "type": "function"
    },
    {
      "inputs": [
        {
          "internalType": "uint256",
          "name": "",
          "type": "uint256"
        }
      ],
      "name": "gamblers",
      "outputs": [
        {
          "internalType": "address",
          "name": "",
          "type": "address"
        }
      ],
      "stateMutability": "view",
      "type": "function"
    },
    {
      "inputs": [
        {
          "internalType": "address",
          "name": "",
          "type": "address"
        }
      ],
      "name": "isGambler",
      "outputs": [
        {
          "internalType": "bool",
          "name": "",
          "type": "bool"
        }
      ],
      "stateMutability": "view",
      "type": "function"
    },
    {
      "inputs": [],
      "name": "oracle",
      "outputs": [
        {
          "internalType": "address",
          "name": "",
          "type": "address"
        }
      ],
      "stateMutability": "view",
      "type": "function"
    },
    {
      "inputs": [
        {
          "internalType": "bytes32",
          "name": "",
          "type": "bytes32"
        }
      ],
      "name": "outcomeBets",
      "outputs": [
        {
          "internalType": "uint256",
          "name": "",
          "type": "uint256"
        }
      ],
      "stateMutability": "view",
      "type": "function"
    },
    {
      "inputs": [
        {
          "internalType": "uint256",
          "name": "",
          "type": "uint256"
        }
      ],
      "name": "outcomes",
      "outputs": [
        {
          "internalType": "bytes32",
          "name": "",
          "type": "bytes32"
        }
      ],
      "stateMutability": "view",
      "type": "function"
    },
    {
      "inputs": [],
      "name": "owner",
      "outputs": [
        {
          "internalType": "address",
          "name": "",
          "type": "address"
        }
      ],
      "stateMutability": "view",
      "type": "function"
    },
    {
      "inputs": [
        {
          "internalType": "bytes32",
          "name": "",
          "type": "bytes32"
        }
      ],
      "name": "validOutcomes",
      "outputs": [
        {
          "internalType": "bool",
          "name": "",
          "type": "bool"
        }
      ],
      "stateMutability": "view",
      "type": "function"
    },
    {
      "inputs": [
        {
          "internalType": "uint256",
          "name": "",
          "type": "uint256"
        }
      ],
      "name": "winners",
      "outputs": [
        {
          "internalType": "address",
          "name": "",
          "type": "address"
        }
      ],
      "stateMutability": "view",
      "type": "function"
    },
    {
      "inputs": [
        {
          "internalType": "address",
          "name": "",
          "type": "address"
        }
      ],
      "name": "wins",
      "outputs": [
        {
          "internalType": "uint256",
          "name": "",
          "type": "uint256"
        }
      ],
      "stateMutability": "view",
      "type": "function"
    },
    {
      "inputs": [
        {
          "internalType": "bytes32[]",
          "name": "_outcomes",
          "type": "bytes32[]"
        }
      ],
      "name": "setOutcomes",
      "outputs": [],
      "stateMutability": "nonpayable",
      "type": "function"
    },
    {
      "inputs": [
        {
          "internalType": "address",
          "name": "newOracle",
          "type": "address"
        }
      ],
      "name": "chooseOracle",
      "outputs": [],
      "stateMutability": "nonpayable",
      "type": "function"
    },
    {
      "inputs": [
        {
          "internalType": "bytes32",
          "name": "outcome",
          "type": "bytes32"
        }
      ],
      "name": "makeBet",
      "outputs": [],
      "stateMutability": "payable",
      "type": "function"
    },
    {
      "inputs": [
        {
          "internalType": "bytes32",
          "name": "decidedOutcome",
          "type": "bytes32"
        }
      ],
      "name": "makeDecision",
      "outputs": [],
      "stateMutability": "nonpayable",
      "type": "function"
    },
    {
      "inputs": [
        {
          "internalType": "uint256",
          "name": "amount",
          "type": "uint256"
        }
      ],
      "name": "withdraw",
      "outputs": [],
      "stateMutability": "nonpayable",
      "type": "function"
    },
    {
      "inputs": [],
      "name": "contractReset",
      "outputs": [],
      "stateMutability": "nonpayable",
      "type": "function"
    },
    {
      "inputs": [
        {
          "internalType": "bytes32",
          "name": "outcome",
          "type": "bytes32"
        }
      ],
      "name": "checkOutcome",
      "outputs": [
        {
          "internalType": "uint256",
          "name": "",
          "type": "uint256"
        }
      ],
      "stateMutability": "view",
      "type": "function"
    },
    {
      "inputs": [
        {
          "internalType": "string",
          "name": "outcomeString",
          "type": "string"
        }
      ],
      "name": "checkOutcomeString",
      "outputs": [
        {
          "internalType": "uint256",
          "name": "",
          "type": "uint256"
        }
      ],
      "stateMutability": "view",
      "type": "function"
    },
    {
      "inputs": [],
      "name": "checkWinnings",
      "outputs": [
        {
          "internalType": "uint256",
          "name": "",
          "type": "uint256"
        }
      ],
      "stateMutability": "view",
      "type": "function"
    },
    {
      "inputs": [
        {
          "internalType": "address",
          "name": "_oracle",
          "type": "address"
        }
      ],
      "name": "isOracle",
      "outputs": [
        {
          "internalType": "bool",
          "name": "",
          "type": "bool"
        }
      ],
      "stateMutability": "view",
      "type": "function"
    },
    {
      "inputs": [],
      "name": "getGamblers",
      "outputs": [
        {
          "internalType": "address[]",
          "name": "",
          "type": "address[]"
        }
      ],
      "stateMutability": "view",
      "type": "function"
    },
    {
      "inputs": [],
      "name": "getWinners",
      "outputs": [
        {
          "internalType": "address[]",
          "name": "",
          "type": "address[]"
        }
      ],
      "stateMutability": "view",
      "type": "function"
    },
    {
      "inputs": [],
      "name": "getOutcomes",
      "outputs": [
        {
          "internalType": "bytes32[]",
          "name": "",
          "type": "bytes32[]"
        }
      ],
      "stateMutability": "view",
      "type": "function"
    }
  ],
  "bytecode": "0x60806040523480156200001157600080fd5b506040516200330e3803806200330e83398181016040528101906200003791906200031f565b6002815110156200007f576040517f08c379a000000000000000000000000000000000000000000000000000000000815260040162000076906200040e565b60405180910390fd5b336000806101000a81548173ffffffffffffffffffffffffffffffffffffffff021916908373ffffffffffffffffffffffffffffffffffffffff160217905550620000d081620000d760201b60201c565b50620005a0565b60008054906101000a900473ffffffffffffffffffffffffffffffffffffffff1673ffffffffffffffffffffffffffffffffffffffff163373ffffffffffffffffffffffffffffffffffffffff161462000168576040517f08c379a00000000000000000000000000000000000000000000000000000000081526004016200015f9062000430565b60405180910390fd5b60005b815181101562000262576008828281518110620001b1577f4e487b7100000000000000000000000000000000000000000000000000000000600052603260045260246000fd5b602002602001015190806001815401808255809150506001900390600052602060002001600090919091909150556001600960008484815181106200021f577f4e487b7100000000000000000000000000000000000000000000000000000000600052603260045260246000fd5b6020026020010151815260200190815260200160002060006101000a81548160ff02191690831515021790555080806200025990620004da565b9150506200016b565b5050565b60006200027d620002778462000486565b62000452565b905080838252602082019050828560208602820111156200029d57600080fd5b60005b85811015620002d15781620002b6888262000308565b845260208401935060208301925050600181019050620002a0565b5050509392505050565b600082601f830112620002ed57600080fd5b8151620002ff84826020860162000266565b91505092915050565b600081519050620003198162000586565b92915050565b6000602082840312156200033257600080fd5b600082015167ffffffffffffffff8111156200034d57600080fd5b6200035b84828501620002db565b91505092915050565b600062000373602183620004b5565b91507f6d757374207265676973746572206174206c656173742032206f7574636f6d6560008301527f73000000000000000000000000000000000000000000000000000000000000006020830152604082019050919050565b6000620003db601683620004b5565b91507f73656e6465722069736e277420746865206f776e6572000000000000000000006000830152602082019050919050565b60006020820190508181036000830152620004298162000364565b9050919050565b600060208201905081810360008301526200044b81620003cc565b9050919050565b6000604051905081810181811067ffffffffffffffff821117156200047c576200047b62000557565b5b8060405250919050565b600067ffffffffffffffff821115620004a457620004a362000557565b5b602082029050602081019050919050565b600082825260208201905092915050565b6000819050919050565b6000819050919050565b6000620004e782620004d0565b91507fffffffffffffffffffffffffffffffffffffffffffffffffffffffffffffffff8214156200051d576200051c62000528565b5b600182019050919050565b7f4e487b7100000000000000000000000000000000000000000000000000000000600052601160045260246000fd5b7f4e487b7100000000000000000000000000000000000000000000000000000000600052604160045260246000fd5b6200059181620004c6565b81146200059d57600080fd5b50565b612d5e80620005b06000396000f3fe60806040526004361061014b5760003560e01c806389a78f1a116100b6578063a7fe401d1161006f578063a7fe401d146104c0578063a97e5c93146104fd578063b8ecdb241461053a578063d0aa7e2514610563578063df15c37e1461058c578063eed2a147146105b75761014b565b806389a78f1a146103895780638da5cb5b146103c75780638efe1833146103f2578063914cf4f51461042f578063a2fb11751461046c578063a7a5ce88146104a95761014b565b80633d3db8eb116101085780633d3db8eb1461026557806352311c14146102905780635ee715d6146102cd5780636646586f146102f85780637dc0d1d0146103215780638047a97a1461034c5761014b565b806309eeebb0146101505780630ba83c6d1461017b57806327edd6cf146101a6578063284152dc146101e35780632aaf9c66146101ff5780632e1a7d4d1461023c575b600080fd5b34801561015c57600080fd5b506101656105f4565b6040516101729190612652565b60405180910390f35b34801561018757600080fd5b50610190610682565b60405161019d91906126c6565b60405180910390f35b3480156101b257600080fd5b506101cd60048036038101906101c89190612007565b610695565b6040516101da91906128e5565b60405180910390f35b6101fd60048036038101906101f89190612007565b6106ad565b005b34801561020b57600080fd5b5061022660048036038101906102219190612071565b610b19565b6040516102339190612637565b60405180910390f35b34801561024857600080fd5b50610263600480360381019061025e9190612071565b610b58565b005b34801561027157600080fd5b5061027a610d4a565b60405161028791906126a4565b60405180910390f35b34801561029c57600080fd5b506102b760048036038101906102b29190612007565b610da2565b6040516102c491906128e5565b60405180910390f35b3480156102d957600080fd5b506102e2610e1f565b6040516102ef91906128e5565b60405180910390f35b34801561030457600080fd5b5061031f600480360381019061031a9190611fc6565b610eb7565b005b34801561032d57600080fd5b5061033661103d565b6040516103439190612637565b60405180910390f35b34801561035857600080fd5b50610373600480360381019061036e9190611f9d565b611063565b60405161038091906128e5565b60405180910390f35b34801561039557600080fd5b506103b060048036038101906103ab9190611f9d565b61107b565b6040516103be9291906126fc565b60405180910390f35b3480156103d357600080fd5b506103dc61109f565b6040516103e99190612637565b60405180910390f35b3480156103fe57600080fd5b5061041960048036038101906104149190612030565b6110c3565b60405161042691906128e5565b60405180910390f35b34801561043b57600080fd5b5061045660048036038101906104519190612007565b6110e1565b60405161046391906126c6565b60405180910390f35b34801561047857600080fd5b50610493600480360381019061048e9190612071565b611101565b6040516104a09190612637565b60405180910390f35b3480156104b557600080fd5b506104be611140565b005b3480156104cc57600080fd5b506104e760048036038101906104e29190611f9d565b6112ef565b6040516104f491906126c6565b60405180910390f35b34801561050957600080fd5b50610524600480360381019061051f9190611f9d565b61130f565b60405161053191906126c6565b60405180910390f35b34801561054657600080fd5b50610561600480360381019061055c9190612007565b611369565b005b34801561056f57600080fd5b5061058a60048036038101906105859190611f9d565b611ac8565b005b34801561059857600080fd5b506105a1611d32565b6040516105ae9190612652565b60405180910390f35b3480156105c357600080fd5b506105de60048036038101906105d99190612071565b611dc0565b6040516105eb91906126e1565b60405180910390f35b6060600280548060200260200160405190810160405280929190818152602001828054801561067857602002820191906000526020600020905b8160009054906101000a900473ffffffffffffffffffffffffffffffffffffffff1673ffffffffffffffffffffffffffffffffffffffff168152602001906001019080831161062e575b5050505050905090565b600560009054906101000a900460ff1681565b600a6020528060005260406000206000915090505481565b600073ffffffffffffffffffffffffffffffffffffffff16600160009054906101000a900473ffffffffffffffffffffffffffffffffffffffff1673ffffffffffffffffffffffffffffffffffffffff16141561073f576040517f08c379a000000000000000000000000000000000000000000000000000000000815260040161073690612805565b60405180910390fd5b60008054906101000a900473ffffffffffffffffffffffffffffffffffffffff1673ffffffffffffffffffffffffffffffffffffffff163373ffffffffffffffffffffffffffffffffffffffff1614156107ce576040517f08c379a00000000000000000000000000000000000000000000000000000000081526004016107c590612825565b60405180910390fd5b6107d73361130f565b15610817576040517f08c379a000000000000000000000000000000000000000000000000000000000815260040161080e90612865565b60405180910390fd5b600560009054906101000a900460ff1615610867576040517f08c379a000000000000000000000000000000000000000000000000000000000815260040161085e90612885565b60405180910390fd5b600360003373ffffffffffffffffffffffffffffffffffffffff1673ffffffffffffffffffffffffffffffffffffffff16815260200190815260200160002060009054906101000a900460ff16156108f4576040517f08c379a00000000000000000000000000000000000000000000000000000000081526004016108eb90612785565b60405180910390fd5b6009600082815260200190815260200160002060009054906101000a900460ff16610954576040517f08c379a000000000000000000000000000000000000000000000000000000000815260040161094b906127e5565b60405180910390fd5b80600460003373ffffffffffffffffffffffffffffffffffffffff1673ffffffffffffffffffffffffffffffffffffffff1681526020019081526020016000206000018190555034600460003373ffffffffffffffffffffffffffffffffffffffff1673ffffffffffffffffffffffffffffffffffffffff168152602001908152602001600020600101819055506002339080600181540180825580915050600190039060005260206000200160009091909190916101000a81548173ffffffffffffffffffffffffffffffffffffffff021916908373ffffffffffffffffffffffffffffffffffffffff16021790555034600a60008381526020019081526020016000206000828254610a689190612a3d565b925050819055506001600360003373ffffffffffffffffffffffffffffffffffffffff1673ffffffffffffffffffffffffffffffffffffffff16815260200190815260200160002060006101000a81548160ff021916908315150217905550803373ffffffffffffffffffffffffffffffffffffffff167ff8e19b8ac4065a7305ef78373f54d2b12c631e1c04c0918be0342ac63f61c03334604051610b0e91906128e5565b60405180910390a350565b60028181548110610b2957600080fd5b906000526020600020016000915054906101000a900473ffffffffffffffffffffffffffffffffffffffff1681565b6000600760003373ffffffffffffffffffffffffffffffffffffffff1673ffffffffffffffffffffffffffffffffffffffff1681526020019081526020016000205411610bda576040517f08c379a0000000000000000000000000000000000000000000000000000000008152600401610bd1906127c5565b60405180910390fd5b80600760003373ffffffffffffffffffffffffffffffffffffffff1673ffffffffffffffffffffffffffffffffffffffff168152602001908152602001600020541015610c5c576040517f08c379a0000000000000000000000000000000000000000000000000000000008152600401610c5390612765565b60405180910390fd5b80600760003373ffffffffffffffffffffffffffffffffffffffff1673ffffffffffffffffffffffffffffffffffffffff1681526020019081526020016000206000828254610cab9190612b1e565b925050819055503373ffffffffffffffffffffffffffffffffffffffff166108fc829081150290604051600060405180830381858888f19350505050158015610cf8573d6000803e3d6000fd5b503373ffffffffffffffffffffffffffffffffffffffff167f7084f5476618d8e60b11ef0d7d3f06914655adb8793e28ff7f018d4c76d505d582604051610d3f91906128e5565b60405180910390a250565b60606008805480602002602001604051908101604052809291908181526020018280548015610d9857602002820191906000526020600020905b815481526020019060010190808311610d84575b5050505050905090565b60006009600083815260200190815260200160002060009054906101000a900460ff16610e04576040517f08c379a0000000000000000000000000000000000000000000000000000000008152600401610dfb906127e5565b60405180910390fd5b600a6000838152602001908152602001600020549050919050565b600080600760003373ffffffffffffffffffffffffffffffffffffffff1673ffffffffffffffffffffffffffffffffffffffff168152602001908152602001600020541115610eaf57600760003373ffffffffffffffffffffffffffffffffffffffff1673ffffffffffffffffffffffffffffffffffffffff168152602001908152602001600020549050610eb4565b600090505b90565b60008054906101000a900473ffffffffffffffffffffffffffffffffffffffff1673ffffffffffffffffffffffffffffffffffffffff163373ffffffffffffffffffffffffffffffffffffffff1614610f45576040517f08c379a0000000000000000000000000000000000000000000000000000000008152600401610f3c90612845565b60405180910390fd5b60005b8151811015611039576008828281518110610f8c577f4e487b7100000000000000000000000000000000000000000000000000000000600052603260045260246000fd5b60200260200101519080600181540180825580915050600190039060005260206000200160009091909190915055600160096000848481518110610ff9577f4e487b7100000000000000000000000000000000000000000000000000000000600052603260045260246000fd5b6020026020010151815260200190815260200160002060006101000a81548160ff021916908315150217905550808061103190612bed565b915050610f48565b5050565b600160009054906101000a900473ffffffffffffffffffffffffffffffffffffffff1681565b60076020528060005260406000206000915090505481565b60046020528060005260406000206000915090508060000154908060010154905082565b60008054906101000a900473ffffffffffffffffffffffffffffffffffffffff1681565b600080828051906020012090506110d981610da2565b915050919050565b60096020528060005260406000206000915054906101000a900460ff1681565b6006818154811061111157600080fd5b906000526020600020016000915054906101000a900473ffffffffffffffffffffffffffffffffffffffff1681565b60008054906101000a900473ffffffffffffffffffffffffffffffffffffffff1673ffffffffffffffffffffffffffffffffffffffff163373ffffffffffffffffffffffffffffffffffffffff16146111ce576040517f08c379a00000000000000000000000000000000000000000000000000000000081526004016111c590612845565b60405180910390fd5b600560009054906101000a900460ff1661121d576040517f08c379a0000000000000000000000000000000000000000000000000000000008152600401611214906128a5565b60405180910390fd5b6000600560006101000a81548160ff02191690831515021790555060005b6008805490508110156112c2576009600060088381548110611286577f4e487b7100000000000000000000000000000000000000000000000000000000600052603260045260246000fd5b9060005260206000200154815260200190815260200160002060006101000a81549060ff021916905580806112ba90612bed565b91505061123b565b50600860006112d19190611de4565b600660006112df9190611e05565b600260006112ed9190611e05565b565b60036020528060005260406000206000915054906101000a900460ff1681565b60008173ffffffffffffffffffffffffffffffffffffffff16600160009054906101000a900473ffffffffffffffffffffffffffffffffffffffff1673ffffffffffffffffffffffffffffffffffffffff16149050919050565b6113723361130f565b6113b1576040517f08c379a00000000000000000000000000000000000000000000000000000000081526004016113a890612725565b60405180910390fd5b806009600082815260200190815260200160002060009054906101000a900460ff16611412576040517f08c379a0000000000000000000000000000000000000000000000000000000008152600401611409906127e5565b60405180910390fd5b600560009054906101000a900460ff1615611462576040517f08c379a000000000000000000000000000000000000000000000000000000000815260040161145990612745565b60405180910390fd5b6009600083815260200190815260200160002060009054906101000a900460ff166114c2576040517f08c379a00000000000000000000000000000000000000000000000000000000081526004016114b9906127e5565b60405180910390fd5b6000600280549050116114d457600080fd5b6000600880549050116114e657600080fd5b6001600560006101000a81548160ff02191690831515021790555060008060005b60028054905081101561180557846004600060028481548110611553577f4e487b7100000000000000000000000000000000000000000000000000000000600052603260045260246000fd5b9060005260206000200160009054906101000a900473ffffffffffffffffffffffffffffffffffffffff1673ffffffffffffffffffffffffffffffffffffffff1673ffffffffffffffffffffffffffffffffffffffff16815260200190815260200160002060000154141561173e576006600282815481106115fe577f4e487b7100000000000000000000000000000000000000000000000000000000600052603260045260246000fd5b9060005260206000200160009054906101000a900473ffffffffffffffffffffffffffffffffffffffff169080600181540180825580915050600190039060005260206000200160009091909190916101000a81548173ffffffffffffffffffffffffffffffffffffffff021916908373ffffffffffffffffffffffffffffffffffffffff16021790555060046000600283815481106116c7577f4e487b7100000000000000000000000000000000000000000000000000000000600052603260045260246000fd5b9060005260206000200160009054906101000a900473ffffffffffffffffffffffffffffffffffffffff1673ffffffffffffffffffffffffffffffffffffffff1673ffffffffffffffffffffffffffffffffffffffff168152602001908152602001600020600101548361173b9190612a3d565b92505b600460006002838154811061177c577f4e487b7100000000000000000000000000000000000000000000000000000000600052603260045260246000fd5b9060005260206000200160009054906101000a900473ffffffffffffffffffffffffffffffffffffffff1673ffffffffffffffffffffffffffffffffffffffff1673ffffffffffffffffffffffffffffffffffffffff16815260200190815260200160002060010154826117f09190612a3d565b915080806117fd90612bed565b915050611507565b5060008214156118ff576006600160009054906101000a900473ffffffffffffffffffffffffffffffffffffffff169080600181540180825580915050600190039060005260206000200160009091909190916101000a81548173ffffffffffffffffffffffffffffffffffffffff021916908373ffffffffffffffffffffffffffffffffffffffff1602179055508060076000600160009054906101000a900473ffffffffffffffffffffffffffffffffffffffff1673ffffffffffffffffffffffffffffffffffffffff1673ffffffffffffffffffffffffffffffffffffffff16815260200190815260200160002081905550611a88565b60005b600680549050811015611a86578282600460006006858154811061194f577f4e487b7100000000000000000000000000000000000000000000000000000000600052603260045260246000fd5b9060005260206000200160009054906101000a900473ffffffffffffffffffffffffffffffffffffffff1673ffffffffffffffffffffffffffffffffffffffff1673ffffffffffffffffffffffffffffffffffffffff168152602001908152602001600020600101546119c29190612ac4565b6119cc9190612a93565b6007600060068481548110611a0a577f4e487b7100000000000000000000000000000000000000000000000000000000600052603260045260246000fd5b9060005260206000200160009054906101000a900473ffffffffffffffffffffffffffffffffffffffff1673ffffffffffffffffffffffffffffffffffffffff1673ffffffffffffffffffffffffffffffffffffffff168152602001908152602001600020819055508080611a7e90612bed565b915050611902565b505b7f413cf1e17d70833c017de9b3c64d0104e3e37a7191d95b3d0d6276de992a0b4d600682604051611aba929190612674565b60405180910390a150505050565b60008054906101000a900473ffffffffffffffffffffffffffffffffffffffff1673ffffffffffffffffffffffffffffffffffffffff163373ffffffffffffffffffffffffffffffffffffffff1614611b56576040517f08c379a0000000000000000000000000000000000000000000000000000000008152600401611b4d90612845565b60405180910390fd5b600360008273ffffffffffffffffffffffffffffffffffffffff1673ffffffffffffffffffffffffffffffffffffffff16815260200190815260200160002060009054906101000a900460ff1615611be3576040517f08c379a0000000000000000000000000000000000000000000000000000000008152600401611bda906127a5565b60405180910390fd5b60008054906101000a900473ffffffffffffffffffffffffffffffffffffffff1673ffffffffffffffffffffffffffffffffffffffff168173ffffffffffffffffffffffffffffffffffffffff161415611c72576040517f08c379a0000000000000000000000000000000000000000000000000000000008152600401611c69906128c5565b60405180910390fd5b8073ffffffffffffffffffffffffffffffffffffffff16600160009054906101000a900473ffffffffffffffffffffffffffffffffffffffff1673ffffffffffffffffffffffffffffffffffffffff167f05cd89403c6bdeac21c2ff33de395121a31fa1bc2bf3adf4825f1f86e79969dd60405160405180910390a380600160006101000a81548173ffffffffffffffffffffffffffffffffffffffff021916908373ffffffffffffffffffffffffffffffffffffffff16021790555050565b60606006805480602002602001604051908101604052809291908181526020018280548015611db657602002820191906000526020600020905b8160009054906101000a900473ffffffffffffffffffffffffffffffffffffffff1673ffffffffffffffffffffffffffffffffffffffff1681526020019060010190808311611d6c575b5050505050905090565b60088181548110611dd057600080fd5b906000526020600020016000915090505481565b5080546000825590600052602060002090810190611e029190611e26565b50565b5080546000825590600052602060002090810190611e239190611e43565b50565b5b80821115611e3f576000816000905550600101611e27565b5090565b5b80821115611e5c576000816000905550600101611e44565b5090565b6000611e73611e6e84612931565b612900565b90508083825260208201905082856020860282011115611e9257600080fd5b60005b85811015611ec25781611ea88882611f49565b845260208401935060208301925050600181019050611e95565b5050509392505050565b6000611edf611eda8461295d565b612900565b905082815260208101848484011115611ef757600080fd5b611f02848285612bc4565b509392505050565b600081359050611f1981612ce3565b92915050565b600082601f830112611f3057600080fd5b8135611f40848260208601611e60565b91505092915050565b600081359050611f5881612cfa565b92915050565b600082601f830112611f6f57600080fd5b8135611f7f848260208601611ecc565b91505092915050565b600081359050611f9781612d11565b92915050565b600060208284031215611faf57600080fd5b6000611fbd84828501611f0a565b91505092915050565b600060208284031215611fd857600080fd5b600082013567ffffffffffffffff811115611ff257600080fd5b611ffe84828501611f1f565b91505092915050565b60006020828403121561201957600080fd5b600061202784828501611f49565b91505092915050565b60006020828403121561204257600080fd5b600082013567ffffffffffffffff81111561205c57600080fd5b61206884828501611f5e565b91505092915050565b60006020828403121561208357600080fd5b600061209184828501611f88565b91505092915050565b60006120a683836120ca565b60208301905092915050565b60006120be8383612218565b60208301905092915050565b6120d381612b72565b82525050565b6120e281612b72565b82525050565b60006120f3826129c2565b6120fd8185612a0a565b93506121088361298d565b8060005b83811015612139578151612120888261209a565b975061212b836129e3565b92505060018101905061210c565b5085935050505092915050565b6000612151826129cd565b61215b8185612a0a565b93506121668361299d565b8060005b8381101561219e5761217b82612cc3565b612185888261209a565b9750612190836129f0565b92505060018101905061216a565b5085935050505092915050565b60006121b6826129d8565b6121c08185612a1b565b93506121cb836129b2565b8060005b838110156121fc5781516121e388826120b2565b97506121ee836129fd565b9250506001810190506121cf565b5085935050505092915050565b61221281612b84565b82525050565b61222181612b90565b82525050565b61223081612b90565b82525050565b6000612243601783612a2c565b91507f73656e6465722069736e277420746865206f7261636c650000000000000000006000830152602082019050919050565b6000612283601b83612a2c565b91507f63616e206d616b65206465636973696f6e206f6e6c79206f6e636500000000006000830152602082019050919050565b60006122c3601d83612a2c565b91507f696e73756666696369656e742072657175657374656420616d6f756e740000006000830152602082019050919050565b6000612303601e83612a2c565b91507f656163682067616d626c65722063616e206f6e6c7920626574206f6e636500006000830152602082019050919050565b6000612343601e83612a2c565b91507f746865206f7261636c652063616e6e6f7420626520612067616d626c657200006000830152602082019050919050565b6000612383603b83612a2c565b91507f73656e6465722073686f756c6420626520612077696e6e6572206f7220696e7360008301527f756666696369656e742072657175657374656420616d6f756e742000000000006020830152604082019050919050565b60006123e9601683612a2c565b91507f6f7574636f6d65206e6f742072656769737465726564000000000000000000006000830152602082019050919050565b6000612429600f83612a2c565b91507f6e6f206f7261636c6520666f756e6400000000000000000000000000000000006000830152602082019050919050565b6000612469601483612a2c565b91507f746865206f776e65722063616e6e6f74206265740000000000000000000000006000830152602082019050919050565b60006124a9601683612a2c565b91507f73656e6465722069736e277420746865206f776e6572000000000000000000006000830152602082019050919050565b60006124e9602483612a2c565b91507f746865206f7261636c65206f66207468652062657474696e672063616e6e6f7460008301527f20626574000000000000000000000000000000000000000000000000000000006020830152604082019050919050565b600061254f602283612a2c565b91507f63616e6e6f7420626574206166746572206465636973696f6e20776173206d6160008301527f64650000000000000000000000000000000000000000000000000000000000006020830152604082019050919050565b60006125b5601c83612a2c565b91507f63616e6e6f74207265736574206265666f7265206465636973696f6e000000006000830152602082019050919050565b60006125f5601d83612a2c565b91507f746865206f776e65722063616e6e6f7420626520616e206f7261636c650000006000830152602082019050919050565b61263181612bba565b82525050565b600060208201905061264c60008301846120d9565b92915050565b6000602082019050818103600083015261266c81846120e8565b905092915050565b6000604082019050818103600083015261268e8185612146565b905061269d6020830184612628565b9392505050565b600060208201905081810360008301526126be81846121ab565b905092915050565b60006020820190506126db6000830184612209565b92915050565b60006020820190506126f66000830184612227565b92915050565b60006040820190506127116000830185612227565b61271e6020830184612628565b9392505050565b6000602082019050818103600083015261273e81612236565b9050919050565b6000602082019050818103600083015261275e81612276565b9050919050565b6000602082019050818103600083015261277e816122b6565b9050919050565b6000602082019050818103600083015261279e816122f6565b9050919050565b600060208201905081810360008301526127be81612336565b9050919050565b600060208201905081810360008301526127de81612376565b9050919050565b600060208201905081810360008301526127fe816123dc565b9050919050565b6000602082019050818103600083015261281e8161241c565b9050919050565b6000602082019050818103600083015261283e8161245c565b9050919050565b6000602082019050818103600083015261285e8161249c565b9050919050565b6000602082019050818103600083015261287e816124dc565b9050919050565b6000602082019050818103600083015261289e81612542565b9050919050565b600060208201905081810360008301526128be816125a8565b9050919050565b600060208201905081810360008301526128de816125e8565b9050919050565b60006020820190506128fa6000830184612628565b92915050565b6000604051905081810181811067ffffffffffffffff8211171561292757612926612c94565b5b8060405250919050565b600067ffffffffffffffff82111561294c5761294b612c94565b5b602082029050602081019050919050565b600067ffffffffffffffff82111561297857612977612c94565b5b601f19601f8301169050602081019050919050565b6000819050602082019050919050565b60008190508160005260206000209050919050565b6000819050602082019050919050565b600081519050919050565b600081549050919050565b600081519050919050565b6000602082019050919050565b6000600182019050919050565b6000602082019050919050565b600082825260208201905092915050565b600082825260208201905092915050565b600082825260208201905092915050565b6000612a4882612bba565b9150612a5383612bba565b9250827fffffffffffffffffffffffffffffffffffffffffffffffffffffffffffffffff03821115612a8857612a87612c36565b5b828201905092915050565b6000612a9e82612bba565b9150612aa983612bba565b925082612ab957612ab8612c65565b5b828204905092915050565b6000612acf82612bba565b9150612ada83612bba565b9250817fffffffffffffffffffffffffffffffffffffffffffffffffffffffffffffffff0483118215151615612b1357612b12612c36565b5b828202905092915050565b6000612b2982612bba565b9150612b3483612bba565b925082821015612b4757612b46612c36565b5b828203905092915050565b600073ffffffffffffffffffffffffffffffffffffffff82169050919050565b6000612b7d82612b9a565b9050919050565b60008115159050919050565b6000819050919050565b600073ffffffffffffffffffffffffffffffffffffffff82169050919050565b6000819050919050565b82818337600083830152505050565b6000612be6612be183612cd6565b612b52565b9050919050565b6000612bf882612bba565b91507fffffffffffffffffffffffffffffffffffffffffffffffffffffffffffffffff821415612c2b57612c2a612c36565b5b600182019050919050565b7f4e487b7100000000000000000000000000000000000000000000000000000000600052601160045260246000fd5b7f4e487b7100000000000000000000000000000000000000000000000000000000600052601260045260246000fd5b7f4e487b7100000000000000000000000000000000000000000000000000000000600052604160045260246000fd5b6000612ccf8254612bd3565b9050919050565b60008160001c9050919050565b612cec81612b72565b8114612cf757600080fd5b50565b612d0381612b90565b8114612d0e57600080fd5b50565b612d1a81612bba565b8114612d2557600080fd5b5056fea2646970667358221220d6145df752edc684a63e708706005c0ec3bc9e5971d3906afd9e95a9b35eabfb64736f6c63430008000033",
  "immutableReferences": {},
  "source": "// SPDX-License-Identifier: GPL-3.0-only\r\npragma solidity >=0.6.0 <=0.8.9;\r\n\r\ncontract Betting {\r\n    /* Define the Bet struct */\r\n    struct Bet {\r\n        bytes32 outcome; // the guessed outcome\r\n        uint256 amount; // the bet amount\r\n    }\r\n\r\n    address public owner; // the contract owner\r\n    address public oracle; // the oracle that will decide the outcome of the betting\r\n    address[] public gamblers; // list of the gamblers addresses\r\n    mapping(address => bool) public isGambler;\r\n\r\n    /* Maps the gambler's addresses to their bets */\r\n    mapping(address => Bet) public bets;\r\n\r\n    bool public decisionMade;\r\n\r\n    /* List of all winners (maps are not iterable in solidity)*/\r\n    address[] public winners;\r\n    /* Maps the winners to their prize amount */\r\n    mapping(address => uint256) public wins;\r\n\r\n    /* Keep track of all possible outcomes */\r\n    bytes32[] public outcomes;\r\n    /* Map the valid outcomes for his betting */\r\n    mapping(bytes32 => bool) public validOutcomes;\r\n    /* Keep track of the total bet amount in all outcomes */\r\n    mapping(bytes32 => uint256) public outcomeBets;\r\n\r\n    /* Add any events you think are necessary */\r\n    event BetMade(\r\n        address indexed gambler,\r\n        bytes32 indexed outcome,\r\n        uint256 amount\r\n    );\r\n    //event Winners(address[] indexed wins, uint256 totalPrize);\r\n    event Winners(address[] wins, uint256 totalPrize);\r\n    event OracleChanged(\r\n        address indexed previousOracle,\r\n        address indexed newOracle\r\n    );\r\n    event Withdrawn(address indexed gambler, uint256 amount);\r\n\r\n    /* Uh Oh, what are these? */\r\n    modifier onlyOwner() {\r\n        require(msg.sender == owner, \"sender isn't the owner\");\r\n        _;\r\n    }\r\n\r\n    modifier onlyOracle() {\r\n        require(isOracle(msg.sender), \"sender isn't the oracle\");\r\n        _;\r\n    }\r\n\r\n    modifier requireOracle() {\r\n        require(oracle != address(0), \"no oracle found\");\r\n        _;\r\n    }\r\n\r\n    modifier outcomeExists(bytes32 outcome) {\r\n        require(validOutcomes[outcome], \"outcome not registered\");\r\n        _;\r\n    }\r\n\r\n    modifier onlyWinners() {\r\n        require(wins[msg.sender] > 0, \"sender should be a winner or insufficient requested amount \");\r\n        _;\r\n    }\r\n\r\n    /* Constructor function, where owner and outcomes are set */\r\n    constructor(bytes32[] memory initOutcomes) {\r\n        /* TODO (students) */\r\n        // should register at least 2 possible outcomes,\r\n        // and define the contract owner.\r\n        require(initOutcomes.length >= 2,'must register at least 2 outcomes');\r\n        owner=msg.sender;\r\n        setOutcomes(initOutcomes);\r\n\r\n    }\r\n\r\n    function setOutcomes(bytes32[] memory _outcomes) public onlyOwner  {\r\n        /* TODO (students) */\r\n        // I guess this function can be used to initialize the outcomes\r\n        //outcomes=_outcomes;\r\n        for (uint256 i = 0; i < _outcomes.length; i++) {\r\n            outcomes.push(_outcomes[i]);\r\n            validOutcomes[_outcomes[i]] = true;\r\n        }\r\n    }\r\n\r\n    /**\r\n     * @notice This function allows owner to chooses their trusted Oracle.\r\n     * @param newOracle The address of the new oracle.\r\n     */\r\n    function chooseOracle(address newOracle) public onlyOwner {\r\n        /* TODO (students) */\r\n        // Must be called only by the contract owner\r\n        // The oracle cannot be neither a gambler or the owner\r\n        // Should emit OracleChanged event\r\n        require(!isGambler[newOracle],\"the oracle cannot be a gambler\");\r\n        require(newOracle!=owner,\"the owner cannot be an oracle\");\r\n        emit OracleChanged(oracle,newOracle);\r\n        oracle=newOracle;\r\n    }\r\n\r\n    /**\r\n     * @notice Make a bet.\r\n     * @param outcome The hash of the outcome to bet on.\r\n     */\r\n    function makeBet(bytes32 outcome) public payable requireOracle {\r\n        /* TODO (students) */\r\n        // Owner and oracle cannot make a bet\r\n        // A gambler cannot bet twice\r\n        // A gambler can only bet on a registered outcome\r\n        // An oracle should be assigned before starting bets\r\n        // Must be impossible to bet after decision was made\r\n        // Betters are registered by placing a bet\r\n        // Should emit BetMade event\r\n        require(msg.sender!=owner,\"the owner cannot bet\");\r\n        require(!isOracle(msg.sender),\"the oracle of the betting cannot bet\");\r\n        require(!decisionMade, \"cannot bet after decision was made\");\r\n        //require(bets[msg.sender].amount==0,'should not allow a gambler to bet twice'); // A gambler cannot bet twice\r\n        require(!isGambler[msg.sender],\"each gambler can only bet once\");\r\n        require(validOutcomes[outcome], \"outcome not registered\");\r\n        //validOutcomes[outcome]=true;\r\n        bets[msg.sender].outcome = outcome;\r\n        bets[msg.sender].amount = msg.value;\r\n        gamblers.push(msg.sender);\r\n        //outcomes.push(outcome);\r\n        outcomeBets[outcome] += msg.value;\r\n        isGambler[msg.sender] = true;\r\n        emit BetMade(msg.sender, outcome, msg.value);\r\n      \r\n\r\n\r\n    }\r\n\r\n    /**\r\n     * @notice Decide on an outcome.\r\n     * @param decidedOutcome The chosen outcome.\r\n     */\r\n    function makeDecision(bytes32 decidedOutcome) public onlyOracle outcomeExists(decidedOutcome) {\r\n        /* TODO (students) */\r\n        // Must be called only by the oracle\r\n        // The oracle must chooses which outcome wins calling and set the winners.\r\n        // Should be called only once before reset\r\n        // Gamblers and bets must exists before make a decision\r\n        // Winning outcome must exist\r\n        // The winners receive a proportional share of the total funds at stake if they all bet on the correct outcome\r\n        // If all gamblers bet on the correct outcome, then they must get reimbursed their funds.\r\n        // If no gamblers bet on the correct outcome, then the oracle wins the sum of the funds.\r\n        // Should emit Winners event\r\n\r\n        require(!decisionMade,'can make decision only once');\r\n        require(validOutcomes[decidedOutcome], \"outcome not registered\");\r\n        require(gamblers.length>0);\r\n        require(outcomes.length>0);\r\n        decisionMade=true;\r\n\r\n        uint256 sumWinAmount=0;\r\n        uint256 totalPrize=0;\r\n        for(uint256 i = 0; i < gamblers.length; i++) {\r\n            if (bets[gamblers[i]].outcome == decidedOutcome){\r\n                winners.push(gamblers[i]);\r\n                sumWinAmount+=bets[gamblers[i]].amount;\r\n            }\r\n            totalPrize+=bets[gamblers[i]].amount;\r\n        }\r\n\r\n        //winnes get reward\r\n        //if no gambler wins, the oracle gets all fund\r\n        if (sumWinAmount==0){\r\n            winners.push(oracle);\r\n            wins[oracle]=totalPrize;\r\n        } else{\r\n            for(uint256 i = 0; i < winners.length; i++){\r\n                wins[winners[i]]=bets[winners[i]].amount*totalPrize/sumWinAmount;\r\n            }\r\n        }\r\n\r\n        emit Winners(winners,totalPrize);\r\n    }\r\n\r\n    /**\r\n     * @notice This function allows the winners to withdraw their\r\n     * winnings safely (if they win something).\r\n     * @param amount The amount to be withdrawn\r\n     */\r\n    function withdraw(uint256 amount) public onlyWinners{\r\n        /* TODO (students) */\r\n        // Should only be called by winners\r\n        // Winners can withdraw multiple times until the total amount of their prize\r\n        // Should emit Withdrawn event\r\n        require(wins[msg.sender]>=amount,'insufficient requested amount');\r\n        \r\n        wins[msg.sender]-= amount;\r\n        payable(msg.sender).transfer(amount);\r\n        emit Withdrawn(msg.sender,amount);\r\n        \r\n    }\r\n\r\n    /**\r\n     * @notice Reset the contract state\r\n     */\r\n    function contractReset() public onlyOwner {\r\n        /* TODO (students) */\r\n        // Must only be called by the contract owner.\r\n        // Should not allow reset the contract state before a decision is made\r\n        // Must reset the contract variables to the initial state to allow new bettings and outcomes.\r\n        require(decisionMade,\"cannot reset before decision\");\r\n        decisionMade=false;\r\n        for (uint256 i = 0; i <outcomes.length; i++){\r\n            delete validOutcomes[outcomes[i]];\r\n        }\r\n        delete outcomes;\r\n        \r\n        //delete isGambler;\r\n        //delete bets;\r\n        delete winners;\r\n        //delete validOutcomes;\r\n        //delete outcomeBets;\r\n        // for (uint256 i = 0; i < gamblers.length; i++) {\r\n        //     delete bets[gamblers[i]];\r\n        //     delete isGambler[gamblers[i]];\r\n        // }\r\n        delete gamblers;\r\n\r\n        \r\n    }\r\n\r\n    /**\r\n     * @dev This function allows anyone to check the amount\r\n     * already betted per outcome.\r\n     * @param outcome The hash of the outcome to be checked.\r\n     * @return The amount betted for the given outcome.\r\n     */\r\n    function checkOutcome(bytes32 outcome) public view returns (uint256) {\r\n        /* TODO (students) */\r\n        // Must revert if outcome does not exist\r\n        // Returns the current stake for the given outcome\r\n        require(validOutcomes[outcome],'outcome not registered');\r\n        return outcomeBets[outcome];\r\n    }\r\n\r\n    /**\r\n     * @notice This function is similar to `checkOutcome` but\r\n     * it receives the outcome as string.\r\n     * @param outcomeString The string representation of the outcome\r\n     * to be checked.\r\n     * @dev It uses the `keccak256` hash function to get the hash of the `outcomeString`\r\n     * @return The amount betted for the given outcome.\r\n     */\r\n    function checkOutcomeString(string memory outcomeString)\r\n        public\r\n        view\r\n        returns (uint256)\r\n    {\r\n        /* TODO (students) */\r\n        // hash outcomestring using keccak256. Then checkOutcome\r\n        bytes32 outcome = keccak256(bytes(outcomeString));\r\n        return checkOutcome(outcome);\r\n    }\r\n\r\n    /**\r\n     * @notice This function allows anyone to check their winnings.\r\n     * @return The winning amount of the msg.sender if it exists.\r\n     */\r\n    function checkWinnings() public view returns (uint256) {\r\n        /* TODO (students) */\r\n        if (wins[msg.sender] > 0) {\r\n            return wins[msg.sender];\r\n        } else {\r\n            return 0;\r\n        }\r\n\r\n    }\r\n\r\n    function isOracle(address _oracle) public view returns (bool) {\r\n        return oracle == _oracle;\r\n    }\r\n\r\n    function getGamblers() public view returns (address[] memory) {\r\n        return gamblers;\r\n    }\r\n\r\n    function getWinners() public view returns (address[] memory) {\r\n        return winners;\r\n    }\r\n\r\n    function getOutcomes() public view returns (bytes32[] memory) {\r\n        return outcomes;\r\n    }\r\n}\r\n",
  "sourcePath": "C:\\Users\\junec\\OneDrive\\Documents\\cs\\courses_term3\\DAT650_Blockchain\\juneciel510-labs\\lab4-betting\\contracts\\Betting.sol",
  "compiler": {
    "name": "solc",
    "version": "0.8.0+commit.c7dfd78e.Emscripten.clang"
  },
  "schemaVersion": "3.4.3",
  "updatedAt": "2021-11-15T00:54:11.204Z",
  "devdoc": {
    "kind": "dev",
    "methods": {
      "checkOutcome(bytes32)": {
        "details": "This function allows anyone to check the amount already betted per outcome.",
        "params": {
          "outcome": "The hash of the outcome to be checked."
        },
        "returns": {
          "_0": "The amount betted for the given outcome."
        }
      },
      "checkOutcomeString(string)": {
        "details": "It uses the `keccak256` hash function to get the hash of the `outcomeString`",
        "params": {
          "outcomeString": "The string representation of the outcome to be checked."
        },
        "returns": {
          "_0": "The amount betted for the given outcome."
        }
      },
      "checkWinnings()": {
        "returns": {
          "_0": "The winning amount of the msg.sender if it exists."
        }
      },
      "chooseOracle(address)": {
        "params": {
          "newOracle": "The address of the new oracle."
        }
      },
      "makeBet(bytes32)": {
        "params": {
          "outcome": "The hash of the outcome to bet on."
        }
      },
      "makeDecision(bytes32)": {
        "params": {
          "decidedOutcome": "The chosen outcome."
        }
      },
      "withdraw(uint256)": {
        "params": {
          "amount": "The amount to be withdrawn"
        }
      }
    },
    "version": 1
  },
  "userdoc": {
    "kind": "user",
    "methods": {
      "checkOutcomeString(string)": {
        "notice": "This function is similar to `checkOutcome` but it receives the outcome as string."
      },
      "checkWinnings()": {
        "notice": "This function allows anyone to check their winnings."
      },
      "chooseOracle(address)": {
        "notice": "This function allows owner to chooses their trusted Oracle."
      },
      "contractReset()": {
        "notice": "Reset the contract state"
      },
      "makeBet(bytes32)": {
        "notice": "Make a bet."
      },
      "makeDecision(bytes32)": {
        "notice": "Decide on an outcome."
      },
      "withdraw(uint256)": {
        "notice": "This function allows the winners to withdraw their winnings safely (if they win something)."
      }
    },
    "version": 1
  }
}