{
  "contractName": "MyWallet",
  "abi": [
    {
      "inputs": [],
      "stateMutability": "nonpayable",
      "type": "constructor"
    },
    {
      "anonymous": false,
      "inputs": [
        {
          "indexed": false,
          "internalType": "address",
          "name": "_from",
          "type": "address"
        },
        {
          "indexed": false,
          "internalType": "uint256",
          "name": "_weiAmount",
          "type": "uint256"
        }
      ],
      "name": "Deposited",
      "type": "event"
    },
    {
      "anonymous": false,
      "inputs": [
        {
          "indexed": false,
          "internalType": "address",
          "name": "_from",
          "type": "address"
        },
        {
          "indexed": false,
          "internalType": "address",
          "name": "_to",
          "type": "address"
        },
        {
          "indexed": false,
          "internalType": "uint256",
          "name": "_weiAmount",
          "type": "uint256"
        }
      ],
      "name": "Transferred",
      "type": "event"
    },
    {
      "anonymous": false,
      "inputs": [
        {
          "indexed": false,
          "internalType": "address",
          "name": "_to",
          "type": "address"
        },
        {
          "indexed": false,
          "internalType": "uint256",
          "name": "_weiAmount",
          "type": "uint256"
        }
      ],
      "name": "Withdrawn",
      "type": "event"
    },
    {
      "inputs": [],
      "name": "owner",
      "outputs": [
        {
          "internalType": "address",
          "name": "",
          "type": "address"
        }
      ],
      "stateMutability": "view",
      "type": "function",
      "constant": true
    },
    {
      "inputs": [],
      "name": "deposit",
      "outputs": [],
      "stateMutability": "payable",
      "type": "function",
      "payable": true
    },
    {
      "inputs": [
        {
          "internalType": "uint256",
          "name": "weiAmount",
          "type": "uint256"
        }
      ],
      "name": "withdraw",
      "outputs": [],
      "stateMutability": "nonpayable",
      "type": "function"
    },
    {
      "inputs": [
        {
          "internalType": "address payable",
          "name": "recipient",
          "type": "address"
        },
        {
          "internalType": "uint256",
          "name": "weiAmount",
          "type": "uint256"
        }
      ],
      "name": "transfer",
      "outputs": [],
      "stateMutability": "nonpayable",
      "type": "function"
    },
    {
      "inputs": [],
      "name": "getBalance",
      "outputs": [
        {
          "internalType": "uint256",
          "name": "",
          "type": "uint256"
        }
      ],
      "stateMutability": "view",
      "type": "function",
      "constant": true
    }
  ],
  "bytecode": "0x608060405234801561001057600080fd5b50336000806101000a81548173ffffffffffffffffffffffffffffffffffffffff021916908373ffffffffffffffffffffffffffffffffffffffff160217905550610828806100606000396000f3fe60806040526004361061004a5760003560e01c806312065fe01461004f5780632e1a7d4d1461007a5780638da5cb5b146100a3578063a9059cbb146100ce578063d0e30db0146100f7575b600080fd5b34801561005b57600080fd5b50610064610101565b604051610071919061065b565b60405180910390f35b34801561008657600080fd5b506100a1600480360381019061009c91906104ca565b61010b565b005b3480156100af57600080fd5b506100b861027a565b6040516100c591906105a0565b60405180910390f35b3480156100da57600080fd5b506100f560048036038101906100f0919061048e565b61029e565b005b6100ff610415565b005b6000600154905090565b60008054906101000a900473ffffffffffffffffffffffffffffffffffffffff1673ffffffffffffffffffffffffffffffffffffffff163373ffffffffffffffffffffffffffffffffffffffff1614610199576040517f08c379a00000000000000000000000000000000000000000000000000000000081526004016101909061061b565b60405180910390fd5b8060015410156101de576040517f08c379a00000000000000000000000000000000000000000000000000000000081526004016101d59061063b565b60405180910390fd5b3373ffffffffffffffffffffffffffffffffffffffff166108fc829081150290604051600060405180830381858888f19350505050158015610224573d6000803e3d6000fd5b50806001600082825461023791906106dd565b925050819055507f7084f5476618d8e60b11ef0d7d3f06914655adb8793e28ff7f018d4c76d505d5338260405161026f9291906105f2565b60405180910390a150565b60008054906101000a900473ffffffffffffffffffffffffffffffffffffffff1681565b60008054906101000a900473ffffffffffffffffffffffffffffffffffffffff1673ffffffffffffffffffffffffffffffffffffffff163373ffffffffffffffffffffffffffffffffffffffff161461032c576040517f08c379a00000000000000000000000000000000000000000000000000000000081526004016103239061061b565b60405180910390fd5b80610335610101565b1015610376576040517f08c379a000000000000000000000000000000000000000000000000000000000815260040161036d9061063b565b60405180910390fd5b8173ffffffffffffffffffffffffffffffffffffffff166108fc829081150290604051600060405180830381858888f193505050501580156103bc573d6000803e3d6000fd5b5080600160008282546103cf91906106dd565b925050819055507fd1ba4ac2e2a11b5101f6cb4d978f514a155b421e8ec396d2d9abaf0bb02917ee338383604051610409939291906105bb565b60405180910390a15050565b346001546104239190610687565b6001819055507f2da466a7b24304f47e87fa2e1e5a81b9831ce54fec19055ce277ca2f39ba42c4333460405161045a9291906105f2565b60405180910390a1565b600081359050610473816107c4565b92915050565b600081359050610488816107db565b92915050565b600080604083850312156104a157600080fd5b60006104af85828601610464565b92505060206104c085828601610479565b9150509250929050565b6000602082840312156104dc57600080fd5b60006104ea84828501610479565b91505092915050565b6104fc8161075f565b82525050565b61050b81610711565b82525050565b600061051e601783610676565b91507f73656e646572206973206e6f7420746865206f776e65720000000000000000006000830152602082019050919050565b600061055e601283610676565b91507f696e73756666696369656e742066756e647300000000000000000000000000006000830152602082019050919050565b61059a81610755565b82525050565b60006020820190506105b56000830184610502565b92915050565b60006060820190506105d06000830186610502565b6105dd60208301856104f3565b6105ea6040830184610591565b949350505050565b60006040820190506106076000830185610502565b6106146020830184610591565b9392505050565b6000602082019050818103600083015261063481610511565b9050919050565b6000602082019050818103600083015261065481610551565b9050919050565b60006020820190506106706000830184610591565b92915050565b600082825260208201905092915050565b600061069282610755565b915061069d83610755565b9250827fffffffffffffffffffffffffffffffffffffffffffffffffffffffffffffffff038211156106d2576106d1610795565b5b828201905092915050565b60006106e882610755565b91506106f383610755565b92508282101561070657610705610795565b5b828203905092915050565b600061071c82610735565b9050919050565b600061072e82610735565b9050919050565b600073ffffffffffffffffffffffffffffffffffffffff82169050919050565b6000819050919050565b600061076a82610771565b9050919050565b600061077c82610783565b9050919050565b600061078e82610735565b9050919050565b7f4e487b7100000000000000000000000000000000000000000000000000000000600052601160045260246000fd5b6107cd81610723565b81146107d857600080fd5b50565b6107e481610755565b81146107ef57600080fd5b5056fea26469706673582212203fb6b8ac1eb54f2dfeb3fad102826c7a15a33a8b33683368ff609ffbfe6569e964736f6c63430008000033",
  "immutableReferences": {},
  "source": "\r\n// SPDX-License-Identifier: GPL-3.0-only\r\npragma solidity >=0.6.0 <=0.8.9;\r\n\r\ncontract MyWallet {\r\n    address public owner; // contract owner\r\n    uint256 internal balance; // contract balance in wei\r\n\r\n    /* TODO (students): Take a look at the tests to figure out which\r\n     * fields your events need to have.\r\n     */\r\n    event Deposited(address _from, uint256 _weiAmount);\r\n    event Withdrawn(address _to, uint256 _weiAmount);\r\n    event Transferred(address _from, address _to, uint256 _weiAmount);\r\n\r\n    modifier onlyOwner() {\r\n        /* TODO (students) */\r\n        /* Should check if the sender is the contract owner */\r\n        require(msg.sender==owner,\"sender is not the owner\");\r\n        _;\r\n    }\r\n\r\n    constructor() {\r\n        /* TODO (students) */\r\n        /* Should set the contract owner */\r\n        //balance=2 ether;\r\n        owner=msg.sender;\r\n    }\r\n\r\n    /**\r\n     * @notice Deposits the sent amount in the contract as credit to be withdrawn.\r\n     * @dev msg.value contains the amount in Wei to be deposited.\r\n     */\r\n    function deposit() public payable {\r\n        /* TODO (students) */\r\n        // Should accept deposits from anyone\r\n        // Should emit Deposited event\r\n        balance=balance+msg.value;\r\n        emit Deposited(msg.sender, msg.value);\r\n    }\r\n\r\n    /**\r\n     * @notice Withdraws to the owner address the requested amount from the contract.\r\n     * @param weiAmount The amount in Wei to be withdrawn.\r\n     */\r\n    function withdraw(uint256 weiAmount) public onlyOwner {\r\n        /* TODO (students) */\r\n        // Should only be called by the contract owner\r\n        // Should check for sufficient funds to be withdrawn\r\n        // Should emit Withdrawn event\r\n        require(balance>=weiAmount, \"insufficient funds\");\r\n        payable(msg.sender).transfer(weiAmount);\r\n        balance -= weiAmount;\r\n        emit Withdrawn(msg.sender,weiAmount);\r\n    }\r\n\r\n    /**\r\n     * @notice Transfers the requested amount to another address.\r\n     * @param recipient The address of the recipient.\r\n     * @param weiAmount The amount in Wei to be transferred.\r\n     */\r\n    function transfer(address payable recipient, uint256 weiAmount) public onlyOwner {\r\n        /* TODO (students) */\r\n        // Should only be called by the owner\r\n        // Should check for sufficient funds to be transferred\r\n        // Should emit Transferred event\r\n        require(getBalance() >= weiAmount, \"insufficient funds\");\r\n        recipient.transfer(weiAmount);\r\n        balance -= weiAmount;\r\n        emit Transferred(msg.sender, recipient, weiAmount);\r\n    }\r\n\r\n    /**\r\n     * @notice Returns the current balance.\r\n     * @return The current contract balance.\r\n     */\r\n    function getBalance() public view returns (uint256) {\r\n        /* TODO (students) */\r\n        return balance;\r\n    }\r\n}\r\n",
  "sourcePath": "C:\\Users\\junec\\OneDrive\\Documents\\cs\\courses_term3\\DAT650_Blockchain\\juneciel510-labs\\lab4\\contracts\\MyWallet.sol",
  "compiler": {
    "name": "solc",
    "version": "0.8.0+commit.c7dfd78e.Emscripten.clang"
  },
  "schemaVersion": "3.4.3",
  "updatedAt": "2021-11-03T19:47:17.253Z",
  "networkType": "ethereum",
  "devdoc": {
    "kind": "dev",
    "methods": {
      "deposit()": {
        "details": "msg.value contains the amount in Wei to be deposited."
      },
      "getBalance()": {
        "returns": {
          "_0": "The current contract balance."
        }
      },
      "transfer(address,uint256)": {
        "params": {
          "recipient": "The address of the recipient.",
          "weiAmount": "The amount in Wei to be transferred."
        }
      },
      "withdraw(uint256)": {
        "params": {
          "weiAmount": "The amount in Wei to be withdrawn."
        }
      }
    },
    "version": 1
  },
  "userdoc": {
    "kind": "user",
    "methods": {
      "deposit()": {
        "notice": "Deposits the sent amount in the contract as credit to be withdrawn."
      },
      "getBalance()": {
        "notice": "Returns the current balance."
      },
      "transfer(address,uint256)": {
        "notice": "Transfers the requested amount to another address."
      },
      "withdraw(uint256)": {
        "notice": "Withdraws to the owner address the requested amount from the contract."
      }
    },
    "version": 1
  }
}